:03000000020B1BD5
:0C0B1B00787FE4F6D8FD758143020B6280
:040DDE008F248D25AC
:100DE2007F087E001208C9AA06A9077B018B268A02
:100DF200278928E524120086AB26AA27A928900075
:100E020001E525120098AB26AA27A928C003C00233
:100E1200C00190000512012CC003C002C001AB2624
:100E2200AA27A92890000212012CAB26AA27A928DA
:010E3200229D
:100E33007F087E001208C9AA06A9077B018B198ABD
:100E43001A891B74FF120086AB19AA1AA91B9000FA
:100E530001120098AB19AA1AA91BC003C002C00152
:100E630090000512012CC003C002C001AB19AA1ADD
:0E0E7300A91B90000212012CAB19AA1AA91B90
:010E8100224E
:060C23008B248A258926BE
:100C29009000051200FC8B2A8A2B892CAB27AA2855
:100C3900A929C003C002C001AB24AA25A926900096
:100C49000512012CAB2AAA2BA92CC003C002C00192
:100C5900AB27AA28A92990000512012CAB27AA289D
:100C6900A929C003C002C001AB2AAA2BA92C900054
:100C79000212012CAB24AA25A926C003C002C00177
:100C8900AB27AA28A92990000212012CAB24AA2576
:020C9900A9268A
:010C9B002236
:060D14008B248A258926CC
:100D1A009000021200FC8B278A288929900002126F
:100D2A0000FCC003C002C001AB24AA25A92690007A
:100D3A000212012CAB24AA25A926C003C002C001B5
:100D4A00AB27AA28A9299000021200FC90000512DC
:100D5A00012CAB27AA28A929C003C002C001900010
:100D6A000512012CC003C002C001AB27AA28A92979
:0C0D7A0090000212012CAB27AA28A92926
:010D8600224A
:060A8C008B248A25892657
:100A92009000051200FC8B278A2889298050E524C2
:100AA200852583852682652A700AE52C6582700475
:100AB200E52B65836046AB27AA28A929120040FFCF
:100AC200AB2AAA2BA92C120040B5071CAB27AA28D7
:100AD200A929900001120059FFAB2AAA2BA92C9038
:100AE20000011200596F6014AB2AAA2BA92C9000A6
:100AF200051200FC8B2A8A2B892C80A2E5248525ED
:100B020083852682652A700AE52C65827004E52BAE
:080B120065837002FF227F01E0
:010B1A0022B8
:060BA7008B198A1A891B5C
:100BAD009000051200FC8B1C8A1D891E8B1F8A204C
:100BBD008921E519851A83851B82651C700AE51E3E
:100BCD0065827004E51D65836021AB1CAA1DA91EFD
:100BDD008B1F8A2089219000051200FC8B1C8A1D19
:100BED00891EAE20AF2112056680C7AB19AA1AA9BE
:100BFD001BC003C002C00190000212012CC003C033
:100C0D0002C001AB19AA1AA91B90000512012CAB49
:050C1D0019AA1AA91B31
:010C220022AF
:100753000000300310019801887FCC026C020A3E2E
:100763000A0208020802087E0802080208020802B8
:10077300000080008000F8378018800CFE7F0001A5
:10078300C000F01F3C10F61F30103010F01F301067
:100793000000000000000000000000000000000056
:1007A30018001800000000001800180000000000E6
:1007B30000002004FE7F20042005903FD210740B1C
:1007C3001C069013587F9C1016111211101C000068
:1007D30000000000FC3F001C000680018001FE7F3A
:1007E300FE1F80018001800180018001E000000084
:1007F300000008030C1F0411B41C920BEE7F2802A7
:100803008433C61E1E1DE02C502B9E49600E000231
:100F4600012D00013300012E00013500012F0101A2
:100F56003701013801013201013601013101013445
:040F66000101300154
:06066A00AB047DFF7FFFE1
:10067000C280C281E4FEEF20E704D2828002C282FF
:10068000D281C281EF25E0FF0EBE08EAE4FEED2034
:10069000E704D2828002C282D281C281ED25E0FDD0
:1006A0000EBE08EAD283EBB41000400302074C9060
:1006B00006B6F82828730206E60206EA0206F002E9
:1006C00006F602070002070402070A0207100207E3
:1006D0001A02071E02072402072A020734020738FB
:1006E00002073E020744C2848002D284C285800A87
:1006F000C284D2858004D284D285C286C287804CCF
:10070000C2848002D284C285800AC284D2858004D9
:10071000D284D285D286C2878032C2848002D284BB
:10072000C285800AC284D2858004D284D285C286E2
:10073000D2878018C2848002D284C285800AC28493
:10074000D2858004D284D285D286D287D280C283D9
:02075000C28065
:010752002284
:100FA900E4F519F51AFCE4F519F51A12066A051A99
:100FB900E51A70020519C394D0E519940740EC0CA1
:050FC900BC10E3D2831F
:010FCE002200
:100F7F00E4F542F5437C0FE4F542F54312066A05AA
:100F8F0043E54370020542C394D0E542940740EC19
:090F9F001CECC3940050E0D28365
:010FA8002226
:100C9C00E4FCF512F513F512E5137069F510F51176
:100CAC00E5137058FCE5336039E512C43354E02485
:100CBC0054F582E43407F58375F002EC1200F0E48D
:100CCC0093FFE512C43354E02453F582E43407F562
:100CDC008375F002EC1200F0E493FDAB0412067085
:100CEC00800575130180040CBC10BA0511E5117058
:100CFC00020510C394D0E510940740A40512E51228
:070D0C00C394064093D2835B
:010D130022BD
:10081300E4F515F516F517751801120FA9120F0B4C
:10082300E51870030208C3E53360030208C3E53724
:100833007003FF801BE53270047F018013E5317084
:10084300047F02800BE53070047F03800312096587
:100853001202328F181203E48B108A118912E4F505
:1008630013F514E4F515AB10AA11A91275F002E5FE
:1008730015A42401F582E435F0F583120059FF75C0
:10088300F002E515A4F58285F083120059FDAB153E
:100893001206700515E515C3941040CA0514E51436
:1008A30070020513C394E8E513940340B6AE11AF89
:1008B30012120566751000751100751200020823E7
:0508C300120FEFD283CB
:0108C800220D
:03000B000209FCEB
:1009FC00C0E0C0D075D008E52D600730A4047F019D
:100A0C0080027F008F33E52E60073090047F0180D9
:100A1C00027F008F3520A304E52F60047F01800244
:100A2C007F008F3720A204E53860047F0180027FAD
:100A3C00008F3220A104E53660047F0180027F0024
:100A4C008F3120A004E53460047F0180027F008F89
:100A5C0030A2A4E433F52DA290E433F52EA2A3E446
:100A6C0033F52FA2A2E433F538A2A1E433F536A274
:100A7C00A0E433F534758C9E758A58D0D0D0E03212
:03001B00020003DD
:03000300B2A53271
:100D87007E007F007D007C02120ECFE4F52DF53347
:100D9700F52EF535752F0175370175380175320157
:100DA7007536017531017534017530017589217505
:100DB7008C3C758AB0758DDF758BDFD2ABD28ED246
:100DC700AFD2A9D28CD2A4D290E5336005120C9C85
:070DD70080F712081380F2FF
:090F6A00023C0101033900000002
:100F0B00753C01753D01120E338B398A3A893B7D55
:100F1B00067F06120DDE8B278A288929AB39AA3A60
:100F2B00A93B120C237D067F07120DDE8B278A2827
:0B0F3B008929AB39AA3AA93B020C231C
:100FEF00AB39AA3AA93B120BA7AE02AF01020566B5
:100FCF00C3EF64809480400AEF75F01012001EAFDB
:100FDF00F022EF75F01012001EAFF0EF2410FF2279
:10096500AB39AA3AA93B9000051200FC8B248A25D5
:1009750089269000051200FC8B278A288929AB243B
:10098500AA25A926120040FFAB27AA28A9291200EB
:1009950040FEC3EF9EFFAB24AA25A92690000112B5
:1009A5000059FEAB27AA28A929900001120059FD7C
:1009B500C3EE9DFEC3648094805009BEFF037F0093
:1009C500227F0122D3EE648094804009BE01037F1B
:1009D50001227F0022C3EF648094805009BFFF038A
:1009E5007F02227F0322D3EF648094804008BF01F9
:0609F500037F03227F02D4
:0109FB0022D9
:020232008F1922
:100234001209658F1AAB39AA3AA93B90000512003E
:10024400FC8B1B8A1C891D9000051200FC8B1E8AE6
:100254001F89207DFF7FFF120DDE8B218A228923D7
:100264008B278A288929AB39AA3AA93B120C23E5A2
:100274001914605514700302031B1470030203560F
:1002840024036003020392E51A6401AB1BAA1CA9B0
:100294001D601B120040AB21AA22A923120086ABC9
:1002A4001BAA1CA91D9000011200591480591200A8
:1002B40040AB21AA22A923120086AB1BAA1CA91DAC
:1002C40090000112005904803EE51AAB1BAA1CA938
:1002D4001D601B120040AB21AA22A923120086AB89
:1002E4001BAA1CA91D9000011200590480191200B8
:1002F40040AB21AA22A923120086AB1BAA1CA91D6C
:1003040090000112005914FF120FCFAB21AA22A9A9
:1003140023900001EF8074E51A6403AB1BAA1CA9A7
:100324001D600612004014800412004004FF120FE6
:10033400CFAB21AA22A923EF120086AB1BAA1CA9CA
:100344001D900001120059AB21AA22A9239000019B
:100354008039E51A6402AB1BAA1CA91D60061200B1
:100364004004800412004014FF120FCFAB21AA22D4
:10037400A923EF120086AB1BAA1CA91D9000011231
:100384000059AB21AA22A923900001120098AB21A5
:10039400AA22A923120040B53C0A90000112005978
:1003A400653D6012AB39AA3AA93B120D14AE02AFF7
:1003B400011205668018120E827C007D101200BAAC
:1003C4008D3C120E827C007D101200BA8D3DAB393B
:0F03D400AA3AA93B120A8CEF60037F00227F0137
:0103E30022F7
:1003E400AB39AA3AA93B9000051200FC8B198A1A72
:1003F400891BE4F51CF51DF51E7F20FE1208C9AA11
:1004040006A907751C018A1D891EE4FFAB1CAA1DE1
:10041400A91E8F82758300E41200980FBF20EDABF4
:1004240039AA3AA93B0204CAAB19AA1AA91B120099
:1004340040FFF470030204D98F1F90000112005989
:10044400F520E51FC394085034752101E521A80760
:10045400088002C333D8FCF521AB1CAA1DA91E7564
:10046400F002E520A4F58285F0831200594521FFAE
:1004740075F002E520A4F58285F083803F752101A3
:10048400E51F5407FFE521A807088002C333D8FC01
:10049400F521AB1CAA1DA91E75F002E520A42401B8
:1004A400F582E435F0F5831200594521FF75F00219
:1004B400E520A42401F582E435F0F583EF120098D9
:1004C400AB19AA1AA91B9000051200FC8B198A1AF1
:1004D400891B02042C853C1F853D20E51FC394081D
:1004E4005036752101AF1FE521A807088002C333E8
:1004F400D8FCF521AB1CAA1DA91E75F002E520A4A9
:10050400F58285F0831200594521FF75F002E5203C
:10051400A4F58285F083803F752101E51F5407FF10
:10052400E521A807088002C333D8FCF521AB1CAA37
:100534001DA91E75F002E520A42401F582E435F01E
:10054400F5831200594521FF75F002E520A424012A
:10055400F582E435F0F583EF120098AB1CAA1DA9CF
:010564001E78
:010565002273
:100B2700020D87E493A3F8E493A34003F68001F250
:100B370008DFF48029E493A3F85407240CC8C333CF
:100B4700C4540F4420C8834004F456800146F6DF9E
:100B5700E4800B0102040810204080900F46E47ED9
:100B6700019360BCA3FF543F30E509541FFEE49393
:100B7700A360010ECF54C025E060A840B8E493A35A
:100B8700FAE493A3F8E493A3C8C582C8CAC583CA85
:100B9700F0A3C8C582C8CAC583CADFE9DEE780BE3D
:010F7300007D
:10001E00C2D530F707B2D563F0FF05F030E70CB26A
:10002E00D5F4048463F0FF05F080018430D502F42A
:02003E0004229A
:10004000BB010689828A83E0225002E722BBFE02BE
:09005000E32289828A83E49322F1
:10005900BB010CE58229F582E5833AF583E022505C
:1000690006E92582F8E622BBFE06E92582F8E222A6
:0D007900E58229F582E5833AF583E49322C0
:10008600BB010689828A83F0225002F722BBFE0159
:02009600F32253
:10009800F8BB010DE58229F582E5833AF583E8F09E
:1000A800225006E92582C8F622BBFE05E92582C84A
:0200B800F22232
:1000BA00C2D5EC30E709B2D5E4C39DFDE49CFCEE61
:1000CA0030E715B2D5E4C39FFFE49EFE120185C353
:1000DA00E49DFDE49CFC800312018530D507C3E44E
:0600EA009FFFE49EFE22D0
:0C00F000A42582F582E5F03583F583221B
:1000FC00BB010DE58229F582E5833AF58302020204
:10010C005007E92582F80201F0BBFE07E92582F8C9
:10011C00020214E58229F582E5833AF58302022670
:10012C00BB0120E58229F582E5833AF583D0F0D036
:10013C00E0F8D0E0F9D0E0FAD0E0FBE8C0E0C0F0A5
:10014C0002020B5018E92582F8D083D082D0E0F956
:10015C00D0E0FAD0E0FBC082C0830201F9BBFE18EC
:10016C00E92582F8D083D082D0E0F9D0E0FAD0E053
:09017C00FBC082C08302021D22B7
:100E8200AC3EAD3FAE40AF417810EC4D4E4F7004DA
:100E92007CA57DA5C3EC13FCED13FDEE13FEEF1351
:100EA200FF5010EC64CCFCED644CFDEE644EFEEFA2
:100EB20064CEFFD8DF8C3E8D3F8E408F41EE547F53
:0D0EC200FE228E3E8F3F74A5F540F54122C3
:1008C9008E298F2A7E027F008F828E83E0FCA3E02F
:1008D900FD4C7003FEFF228D828C83A3A3E0FAA353
:1008E900E0FBC3952AEA95295008CEECCECFEDCF8F
:1008F90080D6C3EB952AF52CEA9529F52BC3E52C6F
:100909009410E52B940050198D828C83E0FBA3E0B1
:100919008F828E83CBF0A3EBF0ED2404FFE43CFE41
:100929002274FC252CF52C74FF352BF52B8D828C2C
:1009390083A3A3F0A3E52CF0ED2404FFE43CFEEF30
:10094900252CFFEE352BFE8F82F583A3A3E529F035
:0C095900A3E52AF0EF2404FFE43EFE2298
:0B0F7400480200000000000000000028
:100ECF00EF4E7008FE7F01ED1D70011C900200EEC9
:100EDF00F0A3EFF0A3ECF0A3EDF0900200E0FEA37F
:100EEF00E0FFF5828E83E4F0A3F0ED24FCFDEC34FB
:0C0EFF00FF8F828E83A3A3F0A3EDF022EE
:10056600EF4E7003020669900202E07002A3E0708B
:1005760003020669CDEFCDCCEECCED24FCFDEC34C8
:10058600FFFC752402752500852582852483E0FA03
:10059600A3E08A26F52745266011D3E5279FE526A1
:1005A6009E500885262485272580DDE5274526607B
:1005B6004A8D828C83A3A3E0FAA3E02FFFEA3EFED6
:1005C600EF65277003EE65267031852782852683C1
:1005D600A3A3E0FEA3E02404FFE43E8D828C83A364
:1005E600A38FF01201DA852782852683E0FFA3E038
:1005F6008D828C83CFF0A3EFF0800B8D828C83E508
:1006060026F0A3E527F0852582852483A3A3E0FEB3
:10061600A3E02525FFEE3524FEEF2404FFE43EFE8D
:10062600EF6D7002EE6C70308D828C83A3A3E0FEBA
:10063600A3E02404FFE43E852582852483A3A38FBB
:10064600F01201DA8D828C83E0FFA3E08525828596
:100656002483CFF0A3EFF022852582852483ECF056
:04066600A3EDF022EE
:10018500BC000BBE0029EF8DF084FFADF022E4CC5E
:10019500F875F008EF2FFFEE33FEEC33FCEE9DEC27
:1001A500984005FCEE9DFE0FD5F0E9E4CEFD22ED6D
:1001B500F8F5F0EE8420D21CFEADF075F008EF2FB7
:1001C500FFED33FD4007985006D5F0F222C398FDA8
:0501D5000FD5F0EA2245
:1001DA00C5F0F8A3E028F0C5F0F8E58215827002B0
:0601EA001583E038F0224D
:0901F000E6FB08E6FA08E6F92234
:0901F900EBF608EAF608E9F6222B
:09020200E0FBA3E0FAA3E0F922FD
:09020B00EBF0A3EAF0A3E9F022F4
:09021400E2FB08E2FA08E2F9221B
:09021D00EBF208EAF208E9F22212
:0C022600E493FB740193FA740293F92234
:00000001FF
